:020000040800F2
:100000000000272065060108255200082752000835
:10001000295200082B5200082D520008B50601088D
:1000200000000000000000000000000021C90008DE
:100030002F52000800000000B1C8000869E4000861
:10004000B5060108B5060108B5060108B5060108A0
:10005000B5060108B5060108B5060108B506010890
:10006000B5060108B5060108B5060108B506010880
:10007000B5060108B5060108B5060108B506010870
:10008000B5060108B5060108B50601083152000899
:10009000B5060108B5060108B5060108B506010850
:1000A000B5060108B5060108B5060108B506010840
:1000B00000000000B5060108B5060108B5060108F4
:1000C000B5060108B5060108B5060108B506010820
:1000D000B5060108B5060108B50601087952000801
:1000E000B5060108B5060108B5060108B506010800
:1000F000B5060108B5060108B5060108B5060108F0
:10010000B506010839520008B5060108B506010810
:10011000B5060108B5060108B5060108B5060108CF
:10012000B5060108B5060108B5060108B5060108BF
:10013000B5060108B5060108B5060108B5060108AF
:10014000B5060108B5060108B5060108B50601089F
:10015000B5060108B5060108B5060108B50601088F
:10016000B5060108B5060108B5060108B50601087F
:10017000B5060108B5060108B5060108B50601086F
:10018000B5060108B5060108B5060108B50601085F
:10019000B5060108B5060108B5060108B50601084F
:1001A000B5060108B5060108B5060108B50601083F
:1001B000B506010800000000B5060108B5060108F3
:1001C000B506010800000000B5060108B5060108E3
:1001D000B5060108B5060108B5060108B50601080F
:1001E000B5060108B5060108B5060108B5060108FF
:1001F0000000000000000000B5060108B506010877
:10020000B5060108B5060108B5060108B5060108DE
:10021000B5060108B506010845520008B5060108F3
:10022000B5060108B5060108B5060108B5060108BE
:10023000B5060108B5060108B5060108B5060108AE
:10024000B5060108B5060108B5060108B50601089E
:10025000515200085D520008B506010869520008B5
:0C02600075520008B5060108B50601083B
:1002700010B5054C237833B9044B13B1044800E0A2
:1002800000BF0123237010BD3001022000000000D8
:1002900098B4020808B5034B1BB10349034800E0BA
:1002A00000BF08BD000000003401022098B402081D
:1002B000002202607047704790F8252012B1036851
:1002C0005B691847704781807047C1807047018122
:1002D000704741817047704770477047704770475B
:1002E000C38810B4D21A838812B2C91A036809B23B
:1002F0005B6D5DF8044B1847806A704770B5044623
:10030000154603681B6B9847236829462046BDE8BD
:1003100070405B6B184770B504461E46BDF910501F
:10032000FFF7ECFF2368314620469A6B904723681D
:1003300029462046BDE87040DB6B1847704710B572
:100340000446082129F036F8204610BD00207047E9
:100350004FF6FF7383814FF0FF3303621368C3616D
:100360001060704790F825201AB190F8242002B14F
:1003700018607047044B1B6893F876200AB1D86C5C
:1003800000B99868704700BF68DA06207047704768
:100390007047704710B50446024B036001F078FBCC
:1003A000204610BD58B6020810B50446FFF7F2FF0C
:1003B000204642F6702128F0FDFF204610BD13B5FF
:1003C00090F82830044643B10146684613F07FFC9C
:1003D000236869461B692046984702B010BDD1EDDD
:1003E000007AF4EEC07AF1EE10FA02DD81ED000A37
:1003F0007047F4EEE07AF1EE10FA48BFC1ED000A62
:100400007047000070B52DED048BB1F90830B1F9DB
:100410000620A3F1F00505FB05F60446A2F1F00065
:1004200000FB006043F60856B0424EDD002D4CDC68
:1004300007EE102AB1F90A00B1F90C10F8EEC70A5C
:1004400007EE103A08EE900A08EE101ADFED207A57
:10045000B8EEC70AF8EEE88AB8EEC88A70EEE70A86
:1004600030EE670A78EEE78A38EE678A29F012F9EB
:10047000F0EE680AB0EE409AB0EE480A29F00AF9A8
:1004800070EE497A9FED130AB0EEE77AB4EEC07AC7
:10049000F1EE10FA19DC04F5295191ED007A77EEAE
:1004A000277ADFED0D0AC1ED007A2046FFF797FFAE
:1004B00042F66023E25842F66823E250012342F6F6
:1004C0006C22A35442F66D22A354BDEC048B70BD84
:1004D00000007043DB0FC93FDB0FC9BFD0ED007ACE
:1004E00030EE270AFCEEC07A034617EE902A80ED24
:1004F000000A1E20B2FBF0F100FB112202BBDA68F9
:100500000120013A08BFB422DA60D3ED037ADFEDAF
:100510000D6AB8EEE77AC7EE267AB1EE087AC3ED37
:10052000027A67EE877AFDEEE77A17EE902A052ABF
:10053000A8BF0522596891421CBF5A60012070472C
:100540000020E2E700003443DFED077A08B520EE33
:10055000270A29F055F8B3EE047AF3EE0E7AE0EEAE
:10056000077AB0EE670A08BD0AD7233C10B5D0ED74
:10057000017A002330EE270A044680ED010A8360E9
:10058000FFF7E2FFD4ED057A9FED0B7AE0EE077AF4
:10059000C4ED057AD4ED047A84ED030A30EE670ADF
:1005A000DFED067AB0EEC00AB4EEE70AF1EE10FA1B
:1005B000CCBF0120002010BDACC52737CDCC4C3DB1
:1005C0002DE9F048D0ED017A37EE800A002780ED62
:1005D000010A0D4BD3E900BC0BF0010656EA0702F5
:1005E00009BF0A4A0020127907EE902A02BFF8EEEE
:1005F000677AC0ED007A01201BF101044CF100057F
:10060000C3E90045BDE8F08850010220DCE0062087
:10061000F7B5874A874D537812781B0203F440736D
:1006200013439AB2102B04462A804CDC42F6242352
:100630000121C25882F82510C05803685B699847A9
:1006400042F628230026E25882F82560E058036825
:100650005B69984742F62C23E25882F82560E058FF
:1006600003685B69984742F63023E25882F82560B8
:10067000E05803685B69984742F63423E25882F8F1
:100680002560E05803685B69984742F63823E258D2
:1006900082F82560E05803685B6998472B8825221B
:1006A000642B84BF64232B8000922B88624A06212E
:1006B00004F6AA501AF02BFB04F5D76003B0BDE88E
:1006C000F04018F0B5B9A2F111030F2B0CD842F687
:1006D00028230121C25882F82510C05803685B699D
:1006E000984742F62423ADE7A2F121030F2B16D839
:1006F00042F62C230121C258002682F82510C0584A
:1007000003685B69984742F62823E25882F825601F
:10071000E05803685B69984742F624239CE7A2F1FE
:1007200031030F2B1FD842F630230121C258002677
:1007300082F82510C05803685B69984742F6282361
:10074000E25882F82560E05803685B69984742F6F2
:100750002C23E25882F82560E05803685B699847CB
:1007600042F6242381E7413A0F2A4FF0010227D8AD
:1007700042F63423C158002681F82520C05803686A
:100780005B69984742F62823E25882F82560E058D2
:1007900003685B69984742F62C23E25882F825608B
:1007A000E05803685B69984742F63023E25882F8C4
:1007B0002560E05803685B69984742F624235DE7AB
:1007C00042F63823C158002681F82520C05842F649
:1007D000342703685B69984742F62823E25882F879
:1007E0002560E05803685B69984742F62C23E2587D
:1007F00082F82560E05803685B69984742F6302329
:10080000E25882F82560E05803685B699847E3592D
:1008100083F82560E05903685B699847E35983F8DA
:100820002560E05903685B69984742F624232EE768
:100830000CE20620580102204AB602087FB50446A1
:10084000D4ED637A04F528551C35F8EEE77A95ED7A
:10085000007A67EE877AF5EEC07AF1EE10FA00F5CD
:10086000AC7019DBB6EE007A77EE877AFDEEE77AA8
:1008700017EE901A12F064FD42F65C23E35804F67A
:10088000B656EBB1D5ED007A9FED1D7A67EE877A0B
:100890001C4AFDEEE77A18E0BDEEE77AF8EEC76A8B
:1008A00077EEE67AF7EE086A77EEA67A17EE103A58
:1008B000FDEEE77A591E17EE903A0B441946D9E738
:1008C000D5ED007AFDEEE77A0F4A17EE903A062151
:1008D00030461AF01CFA2F2268210C4B30461B7947
:1008E000CDE90121572209210092094A1AF00FFA95
:1008F00004F24C7004B0BDE8704018F099B800BF25
:1009000048F9514031B602082CB60208DCE0062056
:1009100037B602082DE9F04F2DED028BA54E9FED65
:10092000A67AF378B279373B9BB207EE903AB8EEED
:10093000678AB4EE478A42F65823F1EE10FAF57949
:10094000C35883B004464FEA951537FE088A002B3A
:1009500040F0FC80C8EE077AB6EE007A42F66D23CE
:1009600077EEC77A9FED957AE35C67EE877A04F5B8
:10097000295863B998ED007A37EE677ADFED906A0F
:10098000B0EEC77AB4EEE67AF1EE10FA28DD04F69E
:100990007807C8ED007A3846FFF711FD98ED001A88
:1009A000D7ED0E0A97ED0D0A384613F084F9384654
:1009B000FFF705FDD8ED007A9FED827A67EE877A22
:1009C000B0EE677A42F63C23BEEEED7AE05817EEC1
:1009D000102A7D4911F04CFC42F66D230022E254AE
:1009E000FDEEC87A42F64C2217EE903AA158994291
:1009F0000AD0A3500621754A04F692501AF087F9DE
:100A000004F5C46018F014F8714B04F54A601F78BF
:100A100093F800909A7893F802A012F0020293F8EB
:100A2000008093F807B016BF012384F8C52C84F822
:100A3000C53C0AF0040A17F0FBFF07F0040709F0B1
:100A4000100908F040080BF0200B04F6CC40BAF176
:100A5000000F00F08480012384F8F13C17F0E8FFD8
:100A600004F62450B9F1000F7CD0012384F8493DED
:100A700017F0DEFF04F67440B8F1000F75D00123C3
:100A800084F8993C17F0D4FF04F64840002F6FD04B
:100A9000012384F86D3C17F0CBFF04F6F840BBF15E
:100AA000000F68D0012384F81D3D17F0C1FF6D27AA
:100AB000B3784B26474ACDE90067062104F69E50DD
:100AC0001AF025F904F26C6017F0B2FF424904F6FF
:100AD0004838CA7988794B79120402F4702243EAC3
:100AE0000023CDE9006713430A213A4A04F67C50FB
:100AF0001AF00DF904F1980004F6883704F6C836A8
:100B000017F096FF04F60844C5BB0121404614F0D7
:100B1000D7FB2946384614F0D3FB0021304614F0A9
:100B2000CFFB0021204614F0CBFB404617F080FF9E
:100B3000384617F07DFF204617F07AFF304603B0A5
:100B4000BDEC028BBDE8F04F17F072BF9FED237A2A
:100B5000DFED236A28EE077AC7EE267AFCE684F8F2
:100B6000F1AC7BE784F8499D82E784F8998C89E7AA
:100B700084F86D7C8FE784F81DBD96E7012DEBB2FC
:100B80004FF000014046C2D0022B07D114F098FB71
:100B90000021384614F094FB0121BFE714F090FBCC
:100BA0000021384614F08CFB0021304614F088FBFD
:100BB0000121B7E7A0E1062000007043DB0F4940A8
:100BC000A69B443BE12E6542C0F4FFFF40B60208FD
:100BD00074E1062043B6020858E006202B121F3F9E
:100BE0000000104310B5044600F52850B7EE000A87
:100BF0001C30FFF7E5FC10B12046FFF71FFE04F59F
:100C00002850B7EE000A0430FFF7B0FC20B1B7EE71
:100C1000000A2046FFF77EFE04F52750B7EE000AD3
:100C20003430FFF75BFC10B12046FFF7F1FC42F6D1
:100C30006022A3580133A35010BD0000F8B504464C
:100C400000F0FCFD0122364B00261B68354F83F86F
:100C5000682042F6242304F6DC22E25042F62823E0
:100C600004F52B62E25042F62C2304F68422E25073
:100C700042F6302304F65822E25042F6342304F6BA
:100C80002C22E25042F6382304F52062E25042F66C
:100C90003C2304F5F362E25004F52853B4221D46C8
:100CA0001A601C353B79B34235DDB7EE000A2846A1
:100CB000FFF786FC0028F8D0D4ED637A95ED007A32
:100CC000F8EEE77A67EE877AF5EEC07AF1EE10FA81
:100CD00004F5AC700BDBB6EE007A77EE877AFDEEAA
:100CE000E77A17EE901A12F02BFB0136DAE7BDEE29
:100CF000E77AF8EEC76A77EEE67AF7EE086A77EEFB
:100D0000A67A17EE103AFDEEE77A591E17EE903AE2
:100D10000B441946E7E72046BDE8F840FFF762BFFD
:100D200068DA0620DCE0062010B50446FFF75AFF1B
:100D300042F66022A3580133A35010BD002242F6B0
:100D40005821425042F65C21425042F63C2200F6C5
:100D50000801815042F66D220121B7EE000A81544C
:100D6000FFF7D8BD012242F65821425042F65C21DD
:100D7000425042F63C2110B400F5F364445042F670
:100D80006D21B7EE000A42545DF8044BFFF7C2BD77
:100D9000704704387047704710B50446102128F09A
:100DA00009FB204610BDA0F10400F5E7002210B5B4
:100DB0008260044AC16002F108042032046042608B
:100DC00010BD00BF90B60208704700F59873086820
:100DD000496803C37047704710B50446D0F85801FE
:100DE000FFF769FA2046BDE8104016F05FBE01F03B
:100DF00037BF10B504464FF4AE7128F0DBFA204639
:100E000010BD10B50446D0F8400158B10368DB6846
:100E1000984738B1D4F8400103689B68984700238D
:100E2000C4F8403110BD000010B5044601F0E8FEE2
:100E3000044B802223604FF40031034819F0F6FF81
:100E4000204610BDC0B602082C01002080F82910F1
:100E5000704790F829007047026890ED0F1AD26E23
:100E6000D0ED0E0A10470268F0EE400AD26E90ED07
:100E70000F1A90ED0D0A10470268B0EE401AD26EBC
:100E8000D0ED0E0A90ED0D0A1047026890ED0F1A92
:100E9000D26FD0ED0E0A10470268F0EE400AD26F12
:100EA00090ED0F1A90ED0D0A10470268B0EE401A4F
:100EB000D26FD0ED0E0A90ED0D0A104790ED0D0A9D
:100EC000704790ED0E0A704790ED0F0A704790ED55
:100ED000100A704790ED110A704790ED120A7047A2
:100EE00090ED130A704790ED140A704790ED150AC3
:100EF000704790ED160A704707EE902AF8EEE70A61
:100F000007EE901A0368B8EEE70AD3F8CC3018471A
:100F100090ED0B0A704790ED0C0A704790ED170AA0
:100F2000704790ED1A0A704790ED1D0A704790EDDA
:100F3000200A704790ED180A704790ED1B0A704721
:100F400090ED1E0A704790ED210A704790ED190A46
:100F5000704790ED1C0A704790ED1F0A704790EDA6
:100F6000220A704730B585B06D460368018104469A
:100F70000146D3F884302846984795E807003C346A
:100F800084E8070005B030BD30B585B06D46036814
:100F9000418104460146D3F884302846984795E8B5
:100FA00007003C3484E8070005B030BD0022028011
:100FB00042808280C280704780F83610704770B5DA
:100FC0000446154603681B6B98472368294620464C
:100FD000BDE870405B6E18470020704700207047E6
:100FE00080ED110AC0ED120A12F006BD80ED0B0A69
:100FF000C0ED0C0A12F000BDF7EE007AB4EEE70A7D
:10100000F1EE10FA30FE270A80ED160A12F0F4BC59
:1010100080ED110AC0ED120A80ED131A12F0ECBC3B
:1010200080ED140AC0ED150A12F0E6BC70B5036835
:1010300004465E6B114B8DB21B682BB96C21104BB3
:10104000104A114829F096F91049828D0988914279
:1010500003D80F4B0B4A6D21F3E713F812200D4B09
:101060001B6853F8220003681B6B9847291A334604
:101070002046BDE8704009B2184700BFC0DA06201C
:1010800004B70208C5B7020846B70208C4DA06204A
:1010900087B70208C8DA062008B590F828300BB1E7
:1010A000FFF70AF908BD08B5FFF706F908BD806C1F
:1010B0007047704710B504464C2128F07BF9204654
:1010C00010BD00224FF0FF318260C0E9002170475F
:1010D0000A4A026000228280C280028142818281AB
:1010E000C28102824282C0E90522C2610284428436
:1010F00080F82420012280F825207047FCE10208B6
:1011000038B504460D462622002129F0BCF92046B8
:10111000FFF7DEFF064B204623602B882946E38439
:10112000FF2384F8283013F0B6FF204638BD00BFF7
:10113000C0E0020810B504462622002129F0A3F9D8
:101140002046FFF7C5FF4FF6FF720C4B4FF47F01AF
:10115000A3620023A285A4F84020A4F84220084AF4
:10116000C4E90C3184F8383084F83930A387E38738
:1011700063642260A364204610BD00BF24B6020849
:1011800008B802087047704700207047B1F9043072
:10119000838001207047704780F82C10704710B48E
:1011A0000468036BD4F8A4405A43594323465DF8BE
:1011B000044B1847D0ED0C7AF8EEE77A20EE270AB8
:1011C000B5EEC00AF1EE10FA0368D3F8A43017DBCD
:1011D000B6EE007A30EE070ABDEEC07A17EE101AAE
:1011E00060EEA70AF5EEC00AF1EE10FA1CDBF6EE8F
:1011F000007A70EEA70AFDEEE07A17EE902A184703
:10120000BDEEC07AF8EEC76A30EE660AF7EE086AFD
:1012100030EE260A17EE102ABDEEC00A511E10EE5F
:10122000102A0A441146DBE7FDEEE07AB8EEE77AD1
:1012300070EEC70AB7EE087A70EE870AFDEEE00A94
:1012400017EE902A10EE90CA013A94446246D6E70F
:1012500010B40368046BD3F8B03062435DF8044BFC
:101260001847D0ED0C7AF8EEE77A27EE800AB5EE53
:10127000C00AF1EE10FA0368D3F8B03008DBF6EEDE
:10128000007A30EE270AFDEEC07A17EE902A184752
:10129000FDEEC07AB8EEE77A30EE470AB7EE087A8C
:1012A00030EE070ABDEEC00A17EE902A10EE10CA03
:1012B000013A94446246EAE710B40468436BD4F8F8
:1012C000BC405A43594323465DF8044B1847D0EDC0
:1012D0000D7AF8EEE77A20EE270AB5EEC00AF1EEB5
:1012E00010FA0368D3F8BC3017DBB6EE007A30EEA4
:1012F000070ABDEEC07A17EE101A60EEA70AF5EEE7
:10130000C00AF1EE10FA1CDBF6EE007A70EEA70AC6
:10131000FDEEE07A17EE902A1847BDEEC07AF8EE9F
:10132000C76A30EE660AF7EE086A30EE260A17EE54
:10133000102ABDEEC00A511E10EE102A0A441146B2
:10134000DBE7FDEEE07AB8EEE77A70EEC70AB7EEBB
:10135000087A70EE870AFDEEE00A17EE902A10EE8A
:1013600090CA013A94446246D6E710B40368446BCD
:10137000D3F8C03062435DF8044B1847D0ED0D7AC6
:10138000F8EEE77A27EE800AB5EEC00AF1EE10FA21
:101390000368D3F8C03008DBF6EE007A30EE270A97
:1013A000FDEEC07A17EE902A1847FDEEC07AB8EE2F
:1013B000E77A30EE470AB7EE087A30EE070ABDEE5C
:1013C000C00A17EE902A10EE10CA013A9444624601
:1013D000EAE7D0F82C31026B002B07DB02EB43006D
:1013E00090FBF2F0022390FBF3F070476FF00100E6
:1013F00000FB0320013890FBF2F0022390FBF3F096
:1014000040427047D0ED4B7A90ED0C0AF8EEE77A47
:10141000B8EEC00A87EE800A7047D0F82C017047FA
:10142000D0F83031026B002B07DB02EB430090FB5E
:10143000F2F0022390FBF3F070476FF0010000FB25
:101440000320013890FBF2F0022390FBF3F04042BE
:101450007047D0ED4C7A90ED0C0AF8EEE77AB8EED2
:10146000C00A87EE800A7047D0F830017047D0F884
:101470003431426B002B07DB02EB430090FBF2F0B0
:10148000022390FBF3F070476FF0010000FB032094
:10149000013890FBF2F0022390FBF3F040427047DA
:1014A000D0ED4D7A90ED0D0AF8EEE77AB8EEC00A6D
:1014B00087EE800A7047D0F834017047D0F8383191
:1014C000426B002B07DB02EB430090FBF2F00223A0
:1014D00090FBF3F070476FF0010000FB0320013830
:1014E00090FBF2F0022390FBF3F040427047D0ED06
:1014F0004E7A90ED0D0AF8EEE77AB8EEC00A87EE64
:10150000800A7047D0F83801704708B590F82C3041
:101510000BB1FEF7D1FE08BD70B504460D46164668
:101520000368D3F888309847236832462946204616
:10153000BDE87040D3F8903018470368D3F8943072
:1015400018470368D3F8D43018470368D3F8E0305D
:10155000184710B40368002AD3F8A430046B0EDBDC
:1015600004EB420191FBF4F1022291FBF2F1B0F99C
:101570001E215DF8044B013A0A44494218476FF0B6
:10158000010101FB0241013991FBF4F1022291FBBF
:10159000F2F14942EBE70368D3F83C311847026B9C
:1015A00003685143D3F8483118470368D3F84431EE
:1015B0001847D0ED0C7AF8EEE77A27EE800AB5EE00
:1015C000C00AF1EE10FA0368D3F8483108DBF6EEF2
:1015D000007A30EE270AFDEEC07A17EE901A18470F
:1015E000FDEEC07AB8EEE77A30EE470AB7EE087A39
:1015F00030EE070A17EE902ABDEEC00A511E10EE1B
:10160000102A0A441146EAE7C0F83C117047036803
:10161000D3F85031184710B503680446D3F85C314D
:1016200098470028236B07DB03EB400090FBF3F0A7
:10163000022390FBF3F010BD6FF0010202FB0030BB
:10164000013890FBF3F0022390FBF3F04042F2E705
:101650000368D3F85831184710B503680446D3F827
:101660005C31984794ED0C0A07EE900AB8EEC00A78
:10167000F8EEE77A87EE800A10BDD0F83C0170479B
:10168000026B03685143D3F868311847D0ED0C7AE8
:10169000F8EEE77A27EE800AB5EEC00AF1EE10FA0E
:1016A0000368D3F8683108DBF6EE007A30EE270ADB
:1016B000FDEEC07A17EE901A1847FDEEC07AB8EE2C
:1016C000E77A30EE470AB7EE087A30EE070A17EEEF
:1016D000902ABDEEC00A511E10EE102A0A4411468F
:1016E000EAE7C0F84011704710B503680446D3F824
:1016F000743198470028236B07DB03EB400090FB15
:10170000F3F0022390FBF3F010BD6FF0010202FB37
:101710000030013890FBF3F0022390FBF3F04042DD
:10172000F2E710B503680446D3F87431984794ED96
:101730000C0A07EE900AB8EEC00AF8EEE77A87EED8
:10174000800A10BDD0F84001704710B50368002929
:101750000446D3F88431026B10DB02EB410191FBAC
:10176000F2F1022291FBF2F109B220469847D4F837
:101770003C21D4F8403102FB003010BD6FF0010075
:1017800000FB0121013991FBF2F1022291FBF2F100
:101790004942E9E7006B7047406B70470368D3F834
:1017A000483118470368D3F85C311847026B036867
:1017B0005143D3F81431184770B503680446D3F881
:1017C0001851D3F88031D0F8446198472B4656F829
:1017D00020102046BDE870401847B0F91C31B0F920
:1017E0001E219A4207DBB0F94C01084490FBF3F14B
:1017F00003FB110109B2084670474801704780F8A1
:101800002610704790F826007047002210B5B1F9F5
:101810000840B1F90A10028042808480C18010BD66
:101820000022028042808280C28070477047017629
:1018300070478182C2827047704770477047704717
:10184000704770477047034630B4C56844686A10F3
:10185000ED0704EB02009B6848BFA25830BC48BFAC
:10186000D358184743682BB183682BB9C06800F080
:10187000010070471846704701207047838A8B42E9
:1018800086BF00EB8100406800207047002210B541
:10189000848A031D91B28C4208D953F8041B104668
:1018A00091F8371001320029F4D010BD4FF0FF300D
:1018B000FBE710B5036804461B699847011E06DB69
:1018C00023682046BDE81040DB6889B21847002035
:1018D00010BD002330B5858A9CB2A54203F10102F8
:1018E00006D900EB84035B6883F838101346F2E7EF
:1018F00030BD838A1BB1436893F83800704718469F
:101900007047034630B4C56844686A10ED0704EBBD
:1019100002009B6848BFA25830BC48BFD358184744
:1019200043682BB183682BB9C06800F00100704791
:10193000184670470120704770B50D4604460121D6
:10194000284613F0BDFC236829462046BDE87040B8
:101950005B6A184710B50446202127F02BFD20466E
:1019600010BD10B5044640F2844127F023FD204607
:1019700010BD10B50446402127F01CFD204610BDC7
:1019800010B50446102127F015FD204610BD10B5F6
:101990000446102127F00EFD204610BD0A1E10B58A
:1019A00003DBB0F91E41944206DC084B084A40F2C2
:1019B0003961084828F0DEFC0368D0F84441D3F8C8
:1019C0008031984754F8200010BD00BF12BC0208B7
:1019D000C2BD020835BC02080B1E10B5044603DB6D
:1019E000B0F91E219A4206DC084B094A40F23361E5
:1019F000084828F0BFFC0368D3F884319847D4F82E
:101A00003C21D4F8403102FB003010BD12BC02086A
:101A100073BD020835BC020808B5838A032B05D9BB
:101A2000094B0A4A41210A4828F0A4FC00F1180396
:101A30008B6200F12803CB63838A5A1C828200EBFD
:101A40008300416008BD00BFCFBA0208CCBC0208C9
:101A500008BB020870B505460B88044625F8043F0C
:101A6000284619F07DFBA071284619F009FA0646B0
:101A7000284619F039FA0023E081A36004F1080038
:101A8000A68115F03BFE284619F0E6FA206170BDEC
:101A900010B50446024B036014F0EEFA204610BD68
:101AA00094BC020810B50446054B036014F0E4FA38
:101AB000204642F6F41127F07DFC204610BD00BF01
:101AC00094BC020870B50446C06B0D4650B1036863
:101AD000DB68984730B1E06B2946BDE87040036889
:101AE0009B68184770BD2DE9F84300F63C178F42FC
:101AF0000446884600F6081932D1002601250368FD
:101B00001B6B9847384684F8616916F091FF484688
:101B100084F82D5916F08CFF04F6B81084F8DD59BE
:101B200016F086FF04F5176084F8956916F080FFBB
:101B300004F16C0084F8915016F07AFF04F5967069
:101B400084F8516116F074FF04F6080084F82D68DB
:101B500010F08CFF84F8BD5704F5F36010F086FF99
:101B6000C84535D100250126236820465B6B984780
:101B7000404684F82D5916F05BFF384684F86169B9
:101B800016F056FF04F5176084F8956916F050FFBB
:101B900004F6B81084F8DD5916F04AFF04F5967083
:101BA00084F8516116F044FF04F16C0084F8915000
:101BB00016F03EFF04F6080084F82D6810F056FF7A
:101BC00084F8BD5704F5F360BDE8F84310F04EBF4C
:101BD000BDE8F88370B504460E460025A28AABB274
:101BE0009A420CD904EB83035868B04205D090F8B0
:101BF000373013B1002113F063FB0135EEE7A06B22
:101C000050B10368DB68984730B1A06B3146BDE83E
:101C1000704003689B68184770BD000010B504460B
:101C20002622002128F02FFC2046FFF751FA0C4B0A
:101C30004FF6FF7223600B4B4FF47F01A36200232A
:101C4000A285C4E90C3184F8383084F83930A38790
:101C5000E387A4F84020A4F842206364204610BD26
:101C600054DF020824B6020837B501AB154617F059
:101C7000AAF800284FEA40142A4601994FF02000A4
:101C800004DB17F0BFF8204403B030BD17F0BAF8FA
:101C9000201AF9E738B5B0F91441B0F81A51D0F864
:101CA00038216319B0F84250ED1AD0F834312DB212
:101CB000C81AD21A691EFFF7D7FF2C44013CC0EBAB
:101CC000441038BD38B50446D0F82C51B0F8163160
:101CD000D0F83021B0F81801521B1844B4F8403045
:101CE0001B1A1BB2481B591EFFF7BEFFB4F9163171
:101CF00000EB431038BD0000002370B58380124B09
:101D0000124C03602268054692F8761009B1D06C37
:101D100000B990680368DB6A9847431E5E425E41E3
:101D20002368D86C30B10368DB6A9847012808BF84
:101D300046F001062EB9064B064A2721064828F030
:101D400019FB284670BD00BF98B8020868DA062063
:101D500058BB02083ABD0208B6BB020838B50446B3
:101D60000D46FFF7C9FF0D4B04F10800A3602B8857
:101D70002946A3810023A37323826382A382E38283
:101D8000A361A383E38384F82030FFF763FE044B51
:101D9000204623602433A36038BD00BFB8B80208D2
:101DA000F8D7020810B504462622002128F06BFB64
:101DB0002046FFF78DF9054B204623600023A362E0
:101DC00084F82C30012384F8243010BD5CDD020837
:101DD00010B50446FFF7E6FF084B204623604FF698
:101DE000FF73E38523866386A38684F83630002359
:101DF00084F8373084F83830E36310BD2CE10208F2
:101E00002DE9F04F04462DED028B00252746B5B095
:101E100017F0A2F9DF4BE56347F8403B262229463D
:101E2000384628F030FB3846FFF752F9DA4B4FF6C8
:101E3000FF7A23644FF0FF3334AE26F808AD04F187
:101E40006C0984F8663031464846A566FFF758F9B4
:101E500004F1980210460C92FFF76CF904F1E402C9
:101E600010460D92FFF7DAFE04F5967210463146E1
:101E700004F5AC781992ADF8C8A0FFF741F9CD216F
:101E8000404611F09FF90122C44B2946C4F858314D
:101E900004F52A73C4F89422C4F89C32CC2240463C
:101EA000C4F89852C4F8A052FFF779F9BC4B04F279
:101EB000DC52C4F858311046A4F8A452279210F00E
:101EC000F1FD4FF00202B74B84F8082604F20C62D1
:101ED000C4F8DC3510462892FFF70EFFB24B04F52C
:101EE000C462C4F80C362433C4F814361046C4F85F
:101EF00018560E92FFF71EF904F26C6210460F920C
:101F0000FFF718F904F5D76210460492FFF712F9AB
:101F100004F2047210461092FFF780FE04F24C7235
:101F200010461192FFF706F904F5F36210461A9273
:101F30000FF0E0FE04F5FC62314610462492ADF845
:101F4000C8A0FFF70BFF04F6080210461B920FF023
:101F5000D1FE04F50562314610462592ADF8C8A0C1
:101F6000FFF7FCFE04F67802314610460392ADF806
:101F7000C8A011F0F5FC04F60812DFF840B21046D4
:101F80001C92FFF70FFF04F63C121046C4F808B984
:101F9000A4F836A9A4F838A984F83AA91D92FFF745
:101FA00001FF4FF0FF3384F86E3904F51763C4F86E
:101FB0003CB91846A4F86AA9A4F86CA90593FFF7E0
:101FC0002DFE04F6B81318460693FFF727FE04F516
:101FD0002063314618461E93ADF8C8A0FFF790F86D
:101FE00004F62C23314618461F93ADF8C8A0FFF71E
:101FF00087F804F65823314618462093ADF8C8A058
:10200000FFF77EF804F68423314618462193ADF895
:10201000C8A0FFF775F804F52B63314618462293E4
:10202000ADF8C8A0FFF76CF804F6DC23314618467B
:102030002393ADF8C8A0FFF763F804F608330793BD
:10204000079A5A4BC4F8242B2422C4F8083B584B57
:10205000C4F8282BC4F8203BC4F8303B079B01226E
:10206000C4F8343B2823C4F8383B04F64833C4F89A
:102070002C2BC4F83C2B1846A4F81C5BC4F8405B1E
:10208000C4F8445B0893FFF7A3FE04F688331846B0
:102090000993FFF79DFE04F6C83318460A93FFF72D
:1020A00097FE04F6084318460B93FFF791FE04F6DB
:1020B0004843314618461293ADF8C8A012F0FCF818
:1020C00004F67443314618461393ADF8C8A012F0D5
:1020D000F3F804F54A63314618461493ADF8C8A0E6
:1020E00012F0EAF804F6CC43314618461593ADF8E1
:1020F000C8A012F0E1F804F6F843314618461693EA
:10210000ADF8C8A012F0D8F804F6245331461846AA
:102110001793ADF8C8A012F0CFF804F55563314617
:1021200018461893ADF8C8A012F0C6F842F6E413AA
:10213000E21826921F4A4FF4E151E250269B1E4AB4
:102140005C6042F6EC13E25042F6F01304F6C45021
:10215000E55013F087FF4FF4F0732A46384600939A
:102160002946FEF7D8F84FF07F4304F1040BA3662D
:10217000394658460EF0E3FA2A4648466FF0020107
:10218000FEF7BCF8522348463146ADF8C83012F08D
:1021900082FF15E094BC0208E4DF020818DA0208A6
:1021A000D4B80208E0DC020868D9020888BA02083C
:1021B00070BA0208BCBA0208E71A00084CE002082C
:1021C000494658460EF0BBFA1A2340F21512009306
:1021D000B62178230C98FEF79EF8154BA4F8CC5046
:1021E000C4F8C830D4F898302AAFD3F884300C99AA
:1021F0003846984797E8070004F1D403DFF8449085
:1022000083E8070004F67C532993D9F800302BB9F2
:102210006021084B084A094828F0ACF8DFF828A0EC
:10222000BAF80030142B11D8054B034A6121F2E7AC
:10223000FFF3D2FF04B7020811BE020846B7020836
:1022400087B70208C0DA0620C4DA0620D44B14216E
:10225000186801F0FDF9D34A03460B21299818F0BC
:1022600056FDD14B299932931523C4F8E0100C98F0
:102270003146ADF8CC3012F08BFD0C9958460EF07B
:102280005EFAFB22E0210D98FEF738F8C749384680
:10229000C4F81411A4F818510D9912F0DFFA97E858
:1022A000070004F5907383E80700BF4B3146329373
:1022B00016230D98ADF8CC3012F06AFD0D995846F2
:1022C0000EF03DFA2A464FF0FF311998FEF716F846
:1022D000512331461998ADF8C83012F0DCFE199937
:1022E000584684F851510EF02AFA42234046009392
:1022F00040F261124FF4CD732421FEF70CF84046F2
:102300002A460121FFF708F940462B462A4629466E
:10231000009510F009FF2B4640462A4629460095B5
:1023200010F029FEFF2240462946FEF7C5FFA04BCC
:102330002899C4F818364FF61973C4F80416A4F88F
:102340001C364FF00201C623404684F81E3684F83E
:102350000816279910F01AFE414658460EF0EFF97C
:102360004C23AD220093BC2167230E98FDF7D3FFC9
:102370009049D4F82036C4F85016A4F85456D3F82F
:1023800084300E993846984797E8070004F25C635A
:1023900083E807008548D9F8003004F692580C907D
:1023A000002B3FF435AFBAF800300E2B7FF63CAF70
:1023B0007B4A0E21106801F04BF97A4A0346062148
:1023C000404618F0A4FC784BC4F868863293072383
:1023D00031460E98ADF8CC3012F0DAFC0E99584622
:1023E0000EF0ADF91E2340F249120093CD21462391
:1023F0000F98FDF790FF6F49D4F86C36C4F89C161F
:10240000A4F8A056D3F884300F993846984797E837
:10241000070004F5D56383E80700D9F8003004F617
:102420009E58002B3FF4F4AEBAF80030112B7FF623
:10243000FBAE5B4A1121106801F00AF9594A0346C4
:102440000621404618F063FC574BC4F8B48632931B
:10245000082331460F98ADF8CC3012F099FC0F9953
:1024600058460EF06CF940F2431234210498FDF7FF
:1024700045FF5049D4F8B836C4F8E816A4F8EC562D
:10248000D3F8843004993846984797E8070004F257
:10249000F46383E80700D9F8003004F6AA58002B4B
:1024A0003FF4B6AEBAF800300F2B7FF6BDAE3C4A13
:1024B0000F21106801F0CCF83A4A03460621404645
:1024C00018F025FC0498C4F8008712F041FC364B44
:1024D0003146329309230498ADF8CC3012F058FC01
:1024E000049958460EF02BF940F229123421109825
:1024F000FDF704FF2D4A3846C4F83427A4F83857AE
:10250000109912F0ABF997E8070004F5E86383E847
:1025100007000D23244F31461098ADF8CC30329788
:1025200012F036FC109958460EF009F9D42140F209
:102530006F121198FDF7E2FE4FF0FF331D49C4F80A
:102540008C37D9F80030A4F88057C4F88857C4F8FD
:102550009057C4F87C1704F6B655002B3FF458AEDC
:10256000BAF80030102B7FF65FAE0D4B10211868C3
:1025700001F06EF80B4A03460721284618F0C7FB06
:10258000C4F89457119812F0E3FB4FF00A0232ADF1
:1025900029461198ADF8CC20329712F0F9FB0BE0E8
:1025A000CCDA0620CCBA020824B60208F58E7DFFEC
:1025B000C6FF19FFFFF3D2FF119958460EF0BFF87E
:1025C0004FF4F07700224FF4F0564FF4BA584FF41E
:1025D000586A3B46009711461A98FDF79CFEDFF8B3
:1025E0007893D64AC4F8C467C4F8D427C4F8C86737
:1025F000C4F8CC87C4F8D8A7C4F8D0971A98B421E7
:102600000FF090FB662329462498ADF8C8300FF0F0
:10261000F6FA24995846C4F8C0171A990EF08FF8A4
:1026200000223B46009711461B98FDF774FEC34AF3
:10263000C4F83468C4F84428C4F83868C4F83C883E
:10264000C4F848A8C4F840981B98B4210FF06AFB5E
:102650006523002629462598ADF8C8300FF0CFFA3B
:10266000259A1B99C4F83028584684F82D680EF036
:1026700066F8324631460398FDF740FE67239FED2A
:10268000B08A29460398ADF8C83011F00BFBAD4B6A
:1026900004F67807C4F88038AB4B87ED0C8AFB62F0
:1026A0000398DFF8B89211F0A7F9DFF8B482B7EE1B
:1026B000000A039811F007FBC7F85890039811F02F
:1026C0009BF9C7F84480C7F84880C7F84C90039836
:1026D00011F092F9C7F850804FF001084FF00C0943
:1026E0004FF00B0A994B03987B6511F085F9F0EEDA
:1026F000480AB0EE480ABFEE001A039811F0DBFA60
:102700000399584684F8A1880EF019F81C988B227A
:10271000C921FDF7F3FD2A4631A91C98ADF8C490F4
:10272000ADF8C8A012F08FFB269A1C99C4F8302986
:1027300058460EF004F81D988B22C921FDF7DEFDE6
:102740002A4631A91D98ADF8C4A0ADF8C89012F082
:102750007AFB269A1D99C4F8642958460DF0EFFFBC
:10276000059840F22F12D521FDF7C8FD784A2AAF0F
:10277000C4F8A02905993846A4F8A46912F06EF8A7
:10278000059A02F13C0397E8070083E80700714BC4
:10279000294605983293ADF8CCA012F0F9FA0599C4
:1027A000584684F895690DF0CAFF069840F22F123A
:1027B000D921FDF7A3FD664A0699C4F8E8293846F1
:1027C000A4F8EC6912F04AF8069A02F13C0397E883
:1027D000070083E807005F4B294606983293ADF85F
:1027E000CC9012F0D5FA069958460DF0A8FF40F2A9
:1027F00007121E981F21FDF781FD092329461E9807
:10280000ADF8C83012F047FC1E9958460DF097FFFE
:1028100040F207121F981F21FDF770FD082329467B
:102820001F98ADF8C83012F036FC1F99584684F84E
:10283000516A0DF084FF40F2071220981F21FDF726
:102840005DFD072329462098ADF8C83012F023FC1F
:102850002099584684F87D6A0DF071FF4FF4847218
:1028600021981F21FDF74AFD062329462198ADF83E
:10287000C83012F010FC2199584684F8A96A0DF06E
:102880005EFF40F2071222981F21FDF737FD052356
:1028900029462298ADF8C83012F0FDFB229958461F
:1028A00084F8D56A0DF04BFF239840F207121F21E0
:1028B000FDF724FD4FF00A0229462398ADF8C82001
:1028C00012F0E9FB2399584684F8016B0DF037FFAD
:1028D00008984FF4A7724FF49771FDF70FFD5A2334
:1028E000ADF8BC30592330AAADF8C030ADF8C430D3
:1028F000ADF8C8302FA931AB0898009512F03FFC15
:102900003146089812F0DCFCDDE9070184F8806BA1
:10291000FFF782F8089958460DF011FF099840F228
:102920002F1240F23F11FDF7E9FC5E23ADF8BC30F9
:102930005D2330AAADF8C03014E000BFE0F8FFFF1F
:1029400000000000E001F000CDCC55430000F04253
:10295000F58E7DFF24B60208C0F4FFFF00007A4424
:1029600000007043ADF8C430ADF8C8302FA931ABCA
:102970000998009512F003FC3146099812F0A0FC6A
:102980000999079884F8C06BFFF746F809995846EB
:102990000DF0D5FE0A984FF4887240F25911FDF7F8
:1029A000ADFC5C23ADF8BC305B2330AAADF8C03081
:1029B000ADF8C430ADF8C8302FA931AB0A980095F6
:1029C00012F0DDFB41460A9812F07AFC0A9907984A
:1029D00084F8006CFFF720F80A9958460DF0AFFE16
:1029E0000B98F0224FF4B371FDF788FC5823ADF833
:1029F000BC30572330AAADF8C030ADF8C430ADF8C4
:102A0000C8302FA931AB0B98009512F0B8FB3146B6
:102A10000B9812F055FC0B99079884F8406CFEF760
:102A2000FBFF0B9958460DF08AFE212746232946C5
:102A30001298ADF8C83012F02EFB20233B221298DA
:102A40000097E121FDF767FC3146129811F0FAFB7F
:102A5000129958460DF073FE29461398ADF8C880B8
:102A600012F019FB6B222023139800974E21FDF7DB
:102A700052FC3146139811F0E5FB139958460DF0BE
:102A80005EFE4C2329461498ADF8C83012F003FBC3
:102A9000C3222023149800972421FDF73CFC3146E3
:102AA000149811F0CFFB149958460DF048FE4D23B1
:102AB00029461598ADF8C83012F0EDFAC32220234C
:102AC000159800974FF4C971FDF725FC314615980C
:102AD00011F0B8FB159958460DF031FE1F23294619
:102AE0001698ADF8C83012F0D6FA4FF4D5722023FC
:102AF00016980097E821FDF70EFC3146169811F064
:102B0000A1FB169958460DF01AFE64232946179822
:102B1000ADF8C83012F0BFFA6B2220231798009747
:102B20004FF4B371FDF7F7FB3146179811F08AFBAC
:102B3000179958460DF003FE6D2329461898ADF8F5
:102B4000C83012F0A8FAAD23A12200931898D02320
:102B50008921FDF7E0FB3146189811F073FB3B2308
:102B6000584684F8783D18990DF0E9FD204635B0B7
:102B7000BDEC028BBDE8F08F704770477047416035
:102B800070477047012303727047704770470346D0
:102B900010B4C46841686210E40701EB02009B684E
:102BA00048BF8A585DF8044B48BFD358184743685C
:102BB0002BB183682BB9C06800F00100704718463C
:102BC00070470120704710B504460C2126F0F2FB37
:102BD000204610BD10B504464FF4AE7126F0EAFB56
:102BE000204610BD10B50446102126F0E3FB204618
:102BF00010BD08B514F0D8FEBDE8084015F01CBBA8
:102C0000F8B50446002517460E4614F08FFF104B0A
:102C1000C4F83C511C600F4BC4F8405123600E4B6C
:102C2000C4F84851C4F844310C4BC4F84C511868EE
:102C3000C4F85051C4F85471C4F858610368294667
:102C40009B689847284600F0C9FC2046F8BD00BFA5
:102C5000BCDA06206CBE020854BE020868DA062000
:102C6000064BC0F84801C0F84C310023C0F8503181
:102C700000F5A273C0F84031704700BF5D2E000818
:102C800038B50446FFF7BCF80622224B04F527515D
:102C900023608A634FF07E520023CA6342F6042009
:102CA000002203254B630A64211825504B608B607A
:102CB0000B614B61CB6004F52851CB6142F63C219E
:102CC000625004F529510B604B6004F529518B606B
:102CD00042F64C21625004F529510B6104F529514B
:102CE0004B61012342F65821635042F65C21635048
:102CF00042F66023E25042F66423E25042F6682333
:102D0000E25042F66C23E25442F66D232046E25430
:102D100038BD00BF58B602082DE9F0470746906855
:102D20009946036888461B6A1546DDF820A0984737
:102D300042F66F23984205D8A321424B424A4348AA
:102D400027F018FB686803681B6A98470F2803D8A8
:102D50003F4B3D4AA421F2E7E86803681B6A9847A5
:102D60000B2803D83B4B384AA521E8E714F01CFE9A
:102D7000043014F03EFED9F8000010B10368DB689F
:102D80009847D9F8000010B103681B689847386865
:102D900010B103685B699847D8F8000010B1036868
:102DA0005B689847386810B103681B689847D8F883
:102DB000000010B103689B689847E8680021036829
:102DC0005B6A9847044620B1002343600372224B9C
:102DD0000360A868002103685B6A9847064608B14B
:102DE000FFF74EFF6868002103685B6A9847054655
:102DF00010B13146FDF7DAFFC9F80040C8F80050BD
:102E00003E60E5B12B1DCAF80030C5F808A0336854
:102E1000F5633046DB6898472B6828461B6898475F
:102E20002146304616F044FB236820461B6998472C
:102E3000236820465B6998472846BDE8F0872B4603
:102E4000E1E700BFD4BE0208E9C0020862BF020881
:102E5000A3BF020846C00208B8BE020807B5D0F8F2
:102E6000583100F59E710093D0F85421034B04486B
:102E7000FFF752FF03B05DF804FB00BFB0DA062095
:102E8000ACDA06207047000030B5134C8FB02368D1
:102E900013F001031CD13F220992104ACDE90B33F4
:102EA00008920F4A0A93CDE90632059304220125C0
:102EB000CDE901339623CDE9032500930B22972317
:102EC0000849094800F064F80848256027F070FABE
:102ED00005480FB030BD00BF5C0102207CFF020836
:102EE00034FF02089002009060010220852E000845
:102EF00013B5002249B102AB019203F8052D026817
:102F0000946801AAA04702B010BD0846FBE7C0893B
:102F10007047008A7047C088704780887047807A01
:102F200000F07F007047807AC0097047406A7047A0
:102F3000806A704770478B88C069DB0A0A6850F85E
:102F400023001044704710B5C2B1137BB3B1547B5A
:102F5000D27A240204F4E0641443026A98B202EBC9
:102F6000840213888B4202D192F9020010BD05D869
:102F7000013880B204320028F3D1F7E70020F5E7EA
:102F800010B504462C2126F015FA204610BD00008D
:102F900030B504468BB0BDF860500895BDF85C5064
:102FA00007959DF8505006959DF84C5005959DF855
:102FB000485004959DF8445003959DF84050029563
:102FC0009DF83C500195BDF83850009515F0DEFD98
:102FD0002046064B2360159BE361169B2362199BD9
:102FE00063621A9BA3620BB030BD00BFFCC1020834
:102FF0007047000030B5124C8FB0236813F0010306
:103000001BD13F2209920F4ACDE90B3308920E4A99
:103010000A93CDE90632059304220125CDE9013357
:103020001823CDE9032500930C2208490848FFF72F
:10303000AFFF0848256027F0BBF905480FB030BD49
:103040008C01022080FF020838FF02082C03009048
:1030500090010220F12F00087047000030B5134C9A
:103060008FB0236813F001031CD13F220992104A4C
:10307000CDE90B3308920F4A0A93CDE90632059346
:1030800004220125CDE901331423CDE90325009362
:103090001222162308490948FFF77AFF08482560DD
:1030A00027F086F905480FB030BD00BFBC010220F3
:1030B00050FF020840FF02086C970090C0010220F8
:1030C000593000087047000030B5124C8FB02268AC
:1030D00012F001021AD110493F2308910F4901252E
:1030E000CDE906210421CDE90B220A920592CDE912
:1030F0000315CDE90122099300930B2208490948E1
:10310000FFF746FF0848256027F052F905480FB041
:1031100030BD00BFEC0102204CFF020844FF020852
:1031200068980090F0010220C53000087047000048
:1031300030B5124D8FB02B6813F001031BD13F2225
:1031400009920F4A012408920E4ACDE90B33CDE9CA
:1031500006320A9305930422CDE901331423CDE905
:1031600003240093224608490848FFF711FF084846
:103170002C6027F01DF905480FB030BD1C0202205D
:1031800088FF020848FF02080499009020020220EC
:103190002D3100087047000030B5124C8FB0236805
:1031A00013F001031BD13F2209920F4ACDE90B33E3
:1031B00008920E4A0A93CDE90632059304220125AE
:1031C000CDE901332A23CDE9032500930B220849D9
:1031D0000848FFF7DDFE0848256027F0E9F80548B4
:1031E0000FB030BD4C0202208CFF020858FF0208CD
:1031F0005C9D00905002022095310008704700004D
:1032000030B5134C8FB0236813F001031CD13F225B
:103210000992104ACDE90B3308920F4A0A93CDE97F
:103220000632059304220125CDE901332023CDE99F
:10323000032500931C22242308490948FFF7A8FE10
:103240000848256027F0B4F805480FB030BD00BF2E
:103250007C02022090FF02085CFF02082C9E009076
:1032600080020220FD3100087047000030B5124C8A
:103270008FB0236813F001031BD13F2209920F4A3C
:10328000CDE90B3308920E4A0A93CDE90632059335
:1032900004220125CDE901331A23CDE9032500934A
:1032A000102208490848FFF773FE0848256027F0F8
:1032B0007FF805480FB030BDAC02022054FF020871
:1032C00060FF0208B49F0090B0020220693200083B
:1032D0007047000030B5124C8FB0236813F0010323
:1032E0001BD13F2209920F4ACDE90B3308920E4AB7
:1032F0000A93CDE90632059304220125CDE9013375
:103300003323CDE9032500930C2208490848FFF731
:103310003FFE0848256027F04BF805480FB030BD48
:10332000DC02022030FF020874FF020894A0009023
:10333000E0020220D13200087047000030B5124C84
:103340008FB0236813F001031BD13F2209920F4A6B
:10335000CDE90B3308920E4A0A93CDE90632059364
:1033600004220125CDE901334823CDE9032500934B
:103370000B2208490848FFF70BFE0848256027F094
:1033800017F805480FB030BD0C0302203CFF0208BF
:1033900078FF020804AD00901003022039330008C2
:1033A0007047000030B5124D8FB02B6813F0010349
:1033B0001BD13F2209920F4A012408920E4ACDE9FF
:1033C0000B33079204220A93CDE90232CDE905348A
:1033D00001931023049400930F2208490848FFF733
:1033E000D7FD08482C6026F0E3FF05480FB030BD3C
:1033F0003C03022064FF020884FF0208DCEF009017
:1034000040030220A1330008704708B50A2933D8C9
:10341000DFE801F0060A0E12161A1E22262A2E00D6
:1034200000F03CF8006808BD00F038F84068FAE7A2
:1034300000F034F88068F6E700F030F8C068F2E792
:1034400000F02CF80069EEE700F028F84069EAE7A0
:1034500000F024F88069E6E700F020F8C069E2E7B0
:1034600000F01CF8006ADEE700F018F8406ADAE7BE
:1034700000F014F8806AD6E70020D4E710B50446BF
:10348000042125F097FF204610BD0000004870473A
:1034900068C20208712070471720704700487047C3
:1034A0006C03022010B5FFF7ABFE104C2060FFF755
:1034B0000BFE6060FFF70EFFA060FFF7E5FCE06029
:1034C000FFF798FD2061FFF739FF6061FFF7CEFE3F
:1034D000A061FFF7C3FDE061FFF764FF2062FFF723
:1034E0005BFE6062FFF724FEA06210BD6C03022049
:1034F00000207047002070470EB403B503AB53F8AB
:10350000042B0021019315F069F902B05DF804EB7A
:1035100003B070470CB407B504AB53F8042B019308
:1035200015F05CF903B05DF804EB02B070470000E1
:1035300010B5436C044673B3038F2BB9C521184BE8
:10354000184A194826F016FFC38E00EB43035B8C24
:103550000BB316F0DAFC238F012B03D8134B144A5C
:10356000CB21EEE7E28E40F63F10531C9BB219468A
:10357000092B88BFA3F10A0104EB4101498C814268
:1035800009D10A2B28BF002304EB4202508C04EB24
:103590004303588451842046BDE8104016F0B8BB60
:1035A0003CCB020869CC020845CB020889CB020853
:1035B00097CB020816F073BB10B586B002AC84E856
:1035C00006001A460AAB05930193099B2146009316
:1035D000089B13F0D1FD06B010BD000038B5D8B976
:1035E000114B12481B681249BBB11A689C681A44F7
:1035F00002605A681C441A440A606CB100220D4BE8
:103600001A80FFF74BFF0546FFF746FF0A4B1C6089
:103610000A4B1D600A4B188038BD0A4B03600A4BE9
:103620000B600A4B1C68E8E7980302209C03022009
:10363000A0030220A4030220C0DA0620C8DA062074
:10364000C4DA062008100190780F01900410019050
:10365000044B1B6853F82100034B1B6803EB40002D
:10366000704700BFA00302209C030220012380F8C2
:10367000741080F875307047002070474164003145
:1036800018BF0121014B1970704700BF67DA06208F
:1036900000207047836B0BB10846184770474FF600
:1036A000FF707047406803689B6918477047704710
:1036B0009022044B83F8762383F8872383F88423AE
:1036C000704700BF00E100E0094A0A49D3680A4890
:1036D000C3F30A03013B9BB20B801169C1F30A01DA
:1036E000013901801364536B43F001035363704746
:1036F00000680140AA030220A8030220014B986A37
:10370000704700BF846801400122024B996243F870
:10371000602C70478468014070B504464FF4005136
:1037200018F036FA23685D6E14F03EF90146204623
:10373000A84723682046D3F88850034AAC46BDE822
:103740007040002301496047F0881120F0FC0620FA
:1037500010B531B90A4B0B4A40F2D2210A4826F083
:1037600009FEC0E90F12003218BF012207490A7092
:1037700002681946BDE81040D2F88C20104700BFFF
:1037800077CD020831CE0208AFCD020866DA0620F6
:1037900008B5094B1B888B4203D8084B1B88934202
:1037A00005D9074B074A9E21074826F0E3FD074B42
:1037B0001980074B1A8008BD5CDA06205EDA062005
:1037C00014CD0208EECD0208AFCD020862DA062061
:1037D00064DA062018F024B990F84B3013B10122B6
:1037E000014B1A7018F02EB9A60302200DF040BA52
:1037F0000DF0A9BB10B504460DF0D0FF236820469C
:10380000BDE81040D3F8AC30184790F877301BB1C2
:10381000406803681B6818471846704710B590F851
:10382000744090F834100C4B8C421A7809D03AB995
:103830000A490B4A08881488108001220C801A70EB
:1038400010BD002AFCD0064A0449148808880C8060
:1038500010800022F3E700BF60DA06205EDA06205F
:103860005CDA06204FF48002034BDA6080221A6192
:1038700010221A61704700BF00E100E04FF480029F
:103880000A4BC3F88C20BFF34F8FBFF36F8F80229A
:10389000C3F89020BFF34F8FBFF36F8F1022C3F890
:1038A0009020BFF34F8FBFF36F8F704700E100E0B0
:1038B00010B5144C236823B3134B144A1B6C1188A6
:1038C0008B4213D1124B198805F08CFE226892F8B6
:1038D0006630013382F8663000F066FA20680DF039
:1038E0005DFFBDE81040002000F0E4BC05F07AFE6A
:1038F000206803681B6A9847BDE81040002000F06C
:10390000F5BC10BD68DA062000680140AA03022059
:10391000A803022003685B6C184701207047036806
:103920009B6A18470F4B82B0D3F8882042F480225C
:10393000C3F88820D3F8882002F480220192019AEB
:103940001A6E42F480221A661A6E22F480221A66D7
:10395000054B064A1A624FF48002054BDA6002B04A
:10396000704700BF000C0246F8DF06207D390008D2
:1039700000E100E040F2EF3070470000024B1B68AE
:10398000586803685B69184768DA062008B50B2891
:103990000BD8DFE800F01206100A0A0A0A08080825
:1039A0000808012008BD0520FCE7054B054A6621F3
:1039B000054826F0DFFC0020F4E70220F2E700BF14
:1039C00099CE02086ACF0208B4CE020808B50A28C8
:1039D00009D8DFE800F010060E08080808060606F9
:1039E0000600012008BD054B054A8721054826F041
:1039F000C1FC0020F6E70220F4E700BF99CE0208E0
:103A0000B4CF0208B4CE0208F8B50C46487FFFF7E1
:103A1000BDFFA77F05463846FFF7B8FF0646384684
:103A2000FFF7D4FFA38A628BD21A464B1A64A18A8D
:103A3000628B521A9A61A18A228B521A1A615863B8
:103A4000A18AE28A42EA01425A642269DA63626820
:103A5000DA602268207F402A6BD00FD8042A62D017
:103A6000202A66D045EA0060364B40F40030D86129
:103A7000617FA27F914262D0334A41E0B2F5807FFC
:103A80001AD0B2F5007F21D0802AEBD145EA006040
:103A900040F40030A768D8615E6222695A613A1D1D
:103AA000DA623A78A2B1012A2CD0284B284A40F297
:103AB0000111284826F05EFC274A42EA0060D861DE
:103AC000E2681A625E6222695A6118E0234AF4E7EA
:103AD000D9697A88501E21F47F42012122F0100218
:103AE00042EA0022DA61174BDA6942F02002DA6119
:103AF000DA699206FCD410229A600029BCD0184AD8
:103B00001A60F8BDDA69788822F47F42217F22F0BA
:103B10001002013842F01002FF3942EA002218BFB9
:103B20000121DA61DFE745EA006040F40030D86146
:103B3000C8E745EA006040F40030024BF7E740F286
:103B40000122DDE700B00240010201007FCE020841
:103B50002CCF0208B4CE02080A00020009000200BD
:103B60000102020010B5887F0C46FFF72FFF174BAC
:103B70005863A18AE28A42EA01425A642269DA63FE
:103B8000628BA18A521A1A642268082A16D1A18A65
:103B9000628B521A9A61A18A628B521A1A61586218
:103BA000217F0B4A42EA0162DA61E2681A62226905
:103BB0005A612269DA60074A1A6010BD0022D86192
:103BC0001A61E2689A63044AF6E700BF00B0024057
:103BD0000900010001020200010203004FF480020B
:103BE000044B0360044BC3F88C20BFF34F8FBFF32B
:103BF0006F8F7047E4CE020800E100E010B5044684
:103C0000FFF7ECFF20464FF45A6125F0D3FB204626
:103C100010BD000070B5054600262C46094B0C303F
:103C200068602E726E7244F8203B602221460DF0CF
:103C30000DFF05F55A63E6602434A342FBD1284604
:103C400070BD00BFE4CE0208034B1A68D207FCD453
:103C500023229A60704700BF00B0024030B50F4C7D
:103C60002568ED07FCD42325A56001250904294317
:103C7000FF2B65636164E0630CD00949656241EA2A
:103C80000363E36122F07F42064B22626061E060E1
:103C9000236030BDE561044BA263F9E700B0024048
:103CA00009000100010002000100030030B50D4CC5
:103CB0002568ED07FCD42325A560012512042A43BD
:103CC000FF2B65636264E063E16007D0064A42EA65
:103CD0000363E36165626061226030BD034BE361B1
:103CE0002560FAE700B0024001000200010002FF77
:103CF00030B50B4C2568ED07FCD42325A5600125C4
:103D000012041B0643F400332A4365636264E063D4
:103D1000E160E361034B65626061236030BD00BF19
:103D200000B0024001000200012108B5002208464F
:103D30000AF039FC0A4B186028B92821094B0A4AB5
:103D40000A4826F017FB0022042101200AF0D2FCC9
:103D5000074B186018B9074B034A2C21F0E708BD40
:103D6000B0030220FFCF0208B3D0020848D00208F7
:103D7000AC03022071D00208024B4FF0FF311868EB
:103D80000AF060BCB0030220014B18680AF088BC3E
:103D9000B0030220024B002118680AF053BC00BF98
:103DA000B0030220FFF7F0BF002303481A4603497F
:103DB00000680AF0DFBC00BFAC0302200400002052
:103DC000002313B5074C1A4601A920680AF006FD26
:103DD0004FF0FF33002201A920680AF0FFFC02B077
:103DE00010BD00BFAC03022001207047382070478F
:103DF000382303FB010008307047382303FB010020
:103E0000083070470120704742F67020704742F634
:103E1000702303FB01000830704742F6702303FB58
:103E2000010008307047012070471020704700EBF8
:103E300001100830704700EB011008307047084649
:103E4000FEF70EBF10B50446024B03600CF056FCA3
:103E5000204610BD54D1020810B50446FFF7F2FF0A
:103E60002046402125F0A6FA204610BD10B5044694
:103E7000024B03600CF042FC204610BD20D102082A
:103E800010B50446FFF7F2FF204642F6782125F0F0
:103E900091FA204610BD000010B50446024B0360A5
:103EA0000CF02CFC204610BDECD0020810B50446E6
:103EB000FFF7F2FF2046182125F07CFA204610BDBE
:103EC00010B50446084B036000F52A502430FFF774
:103ED000B9FF04F12C00FFF7C9FF04F11400FFF74C
:103EE000DBFF204610BD00BF88D1020808B502489C
:103EF000FFF7E6FF08BD00BFB803022010B5044677
:103F0000FFF7DEFF204642F6444125F053FA2046F3
:103F100010BD00002DE9F341FFF7B8FA0024054673
:103F2000FFF7B8FA2346014622462846009416F0C9
:103F300093FF234B234A20461A60234FFFF74EFB83
:103F4000012122481BF00AFE214816F0EDFE3B68D5
:103F5000DB072ED41F4C204E204B06F1440504F104
:103F6000140004F12C086060C4F80880E660256144
:103F700023600CF0C5FB1A4B404663610CF0C0FB9C
:103F8000184B3046E3620CF0BBFB174B06F14000C8
:103F90003360FCF78DF9224606F140012846FCF714
:103FA00043FF2846FEF75CFE012310483B6026F0E5
:103FB000FFF90F4802B0BDE8F04100F08FB800BF34
:103FC000CCDA0620543E0220B4030220583E0220E0
:103FD00008000020B80302205C2E022088D10208CD
:103FE000ECD0020820D1020854D10208ED3E0008AE
:103FF000A03D022008B523F073FEBDE808404FF451
:10400000F071084624F02EBF01480CF094BE00BFAA
:10401000A03D0220F7B5114D114B124F124E28460C
:104020003B60FFF7F7FD30461BF08CFD4FF4F0735B
:104030000E4CCDE9003332463B462946204617F068
:104040003FFD0B4B23600023C4F8AC30C4F8B03004
:10405000084BC4F8A83003B0F0BD00BF0030022008
:1040600028D30208FC2F0220583E0220A03D022047
:10407000B8D1020870D302080148FFF7AFBD00BFF6
:1040800000300220704770470023037100F0B4B97C
:1040900070B504460E4605F01FFB0B4D2B68C01A89
:1040A000B0F5487F04D905F017FB00232860237181
:1040B00000F0A4F9C0B2307028B12379834216BF52
:1040C00020710020012070BD643E022010B504461E
:1040D000082125F06FF9204610BD704738B5044619
:1040E000FFF71AFB084B04F1A8056361002384F86D
:1040F0004A3000F0DDF8284600F092F901232561EE
:1041000084F86C3038BD00BF6C3E0220FFF7F6BA71
:1041100037B50025104C00952368D3F8042422F00D
:104120000802C3F80424D3F8043403F0080300930E
:10413000009BFFF7E9FA23680195D3F8042442F0C5
:104140000802C3F80424D3F8043403F008030193ED
:10415000019B03B030BD00BF14E20620FFF746BB51
:10416000FFF746BB08B5FFF7A3FA9022014B83F88F
:10417000892308BD00E100E008B5FFF773FB4FF4A9
:104180000072014B1A6108BD00E100E0FFF79CBA24
:10419000FFF720BB37B50D4B0546197879B90122D9
:1041A0000B4C1A700B4829231522009108F047F890
:1041B0000421204605F04AF8C82223689A6328465D
:1041C00003B0BDE83040FFF707BB00BF683E0220E8
:1041D00038E2062014E206200CF044BD10B5044677
:1041E000B42125F0E7F8204610BD000008B5FFF720
:1041F00045FB4FF40072044BC3F89020BFF34F8F80
:10420000BFF36F8F08BD00BF00E100E073B50D463E
:1042100031B91C4B1C4A40F2D2211C4826F0AAF8A6
:10422000C0E90F12003218BF012200241849194EAC
:104230000A7002681946D2F88C20904733680094BF
:10424000D3F80424294622F00802C3F80424D3F842
:104250000434224603F0080300930F48009B05F046
:10426000A1F933680194D3F8042442F00802C3F89A
:104270000424D3F8043403F008030193019B02B033
:1042800070BD00BF77CD020888D20208AFCD02080A
:1042900066DA062014E2062050DF06200248034BAF
:1042A0000360FFF7F1BE00BF6C3E02209CD1020804
:1042B00070470000032814D8DFE800F002070A0F57
:1042C00001220221074803F0EDBF01221146F9E760
:1042D00001224FF480410448F5E701224FF4805158
:1042E000F9E77047000C024200140242032814D878
:1042F000DFE800F002070A0F00220221074803F05E
:10430000D1BF00220121F9E700224FF48041044887
:10431000F5E700224FF48051F9E77047000C0242A4
:1043200000140242032810D8DFE800F00206080C4F
:104330000221064803F0BBBF0121FAE74FF4804198
:104340000348F7E74FF48051FAE77047000C024248
:1043500000140242704710B50446042125F02AF8E3
:10436000204610BD10B5064B187830B1054B1C68BF
:1043700024B15C680C609B68136010BD2046FCE7AC
:10438000743E0220783E02201FB5094C207868B99F
:10439000084B69461B8803900093074B1B88CDE9A7
:1043A00001300CF0A3F808B90123237004B010BD4C
:1043B000743E02205CDA06205EDA0620B0F5807FCB
:1043C00008B50DD1074B1B7853B1074900200CF0FD
:1043D000FDF828B1054B064A3B21064825F0CAFFE7
:1043E00008BD00BF743E0220783E0220D6D20208EB
:1043F00038D30208F5D202087047000008B54FF420
:104400000051044803F048FF01280CBF352000206C
:1044100008BD00BF00080242406870474160704715
:10442000094A136843F080731360A2F54E424C3A78
:104430001168064B0B431360A2F57B62136843F0CF
:1044400001031360704700BFFCED00E055CEACC522
:10445000521A02EB5302B2FBF3F07047014B18689B
:10446000704700BF041000E0704710B504460C21EF
:1044700024F0A0FF204610BD10B5036804461B6958
:1044800031B19847A26863689B1A1844606010BDF8
:104490009847A060FBE7000001220E48D0F8883062
:1044A00043F47003C0F888300B4B1A600022DA61C5
:1044B0001A625A62196821F0A85121F4102119607A
:1044C0009A62196821F4802119601A654FF000631F
:1044D0008360704700ED00E0000C024610B5064C0A
:1044E000012023786378A378E37823796379A3792B
:1044F000E3790AF049F8F3E7A0E1062070470000ED
:1045000008B5074A0021074809F0F2FF064B074AA1
:1045100018600021064809F0EBFF064B186008BD43
:104520000CD40208DD440008A4DE0620E8D302080B
:1045300019C80008A0DE062070B51F4B88B0D3F85C
:104540009C20694642F01002C3F89C20D3F89C30AE
:10455000064603F01003019302A8184C019B01F0DA
:104560004FFF01F01DFF164B236040F2E733E3607D
:10457000144BB0FBF3F00023013860602046236148
:10458000A36004F07BFB054668B9204604F078F987
:10459000054640B90F2E0CD802463146312003F0B3
:1045A000B3FB094B1E60312003F0E2FB284608B044
:1045B00070BD0125F7E700BF000C0246A8DE06200B
:1045C0000010004040420F00140000202DE9F0418F
:1045D0000025E8B0012220215F4803F063FE05209A
:1045E00005F080F8002220215B4803F05BFE0B20E1
:1045F00005F078F8242229460CA8CDE9045525F0C9
:1046000042FF182229460DEB020025F03CFF294607
:104610006C2215A825F037FF504C514B0426C4E9F5
:10462000003508230127C4E904354FF002087D2333
:1046300069462046C4E90267CDE90036CDE9028724
:1046400007F07FFA08B172B6FEE7CDE90C70CDE94C
:104650000E00CDE91000CDE9120014900CA92046FF
:1046600007F04EFD08B172B6FEE728234FF00B0E9F
:104670000C25CDE906E31723CDE9085307230A905B
:1046800006A920460B9307F0DDFC08B172B6FEE7E1
:104690003146204607F0C2FC014608B172B6FEE77B
:1046A000204607F0D6F908B172B6FEE70523CDE93A
:1046B00016304FF4F0730622CDE91930032340F28F
:1046C000AC51CDE91F2314232395CDE92113C8252F
:1046D00040F2E113CDE9245340234FF400454FF459
:1046E0000056CDE926534FF480534FF40067CDE9CF
:1046F00029634FF480634FF4007CCDE92B734FF4B2
:104700008073CDE92DC34FF48043CDE91B00CDE983
:104710001D00289015A92046CDF860802F9307F042
:104720004BFB014608B172B6FEE7204607F02EFBB0
:1047300008B172B6FEE7204607F05AFD08B172B61E
:10474000FEE70022042330A8CDE93023669505F06A
:10475000B3F868B0BDE8F0810020024214E2062000
:10476000006C0140F0B5E5B03422002157A825F0D7
:104770008AFE4FF00043B34CB34A0125C4E900233D
:1047800013220220C4E905521F224FF4F176C4E936
:1047900007024FF4007200234FF08041C4E9096220
:1047A00040F2E3174FF43272C4E90213C4E90B720A
:1047B0002361A38684F83630204604F0EDFD0246DE
:1047C00008B172B6FEE740F2E1115A91FF215C9107
:1047D0004FF4C0615E9107214FF4F07357905D90E4
:1047E0005F916090ADF88C018DF88E0157A920463D
:1047F000589359955B956193629304F0AAFE06461F
:1048000008B172B6FEE70A2004F06CFF8F4807F08B
:1048100087FD0A2004F066FF324620218C4803F011
:1048200041FD0A2004F05EFF2A462021884803F05B
:1048300039FD962004F056FF844807F00FFE0A2049
:1048400004F050FF02AB0193B923824C00932188FE
:10485000A278ADF808108DF80A20032339223146DA
:104860007A4807F0FDFC08B172B6FEE70BAFE31C17
:1048700013343E462546324618685968083303C249
:10488000A3421646F7D1B123019700933922102392
:1048900000216E4807F0E4FC044608B172B6FEE75A
:1048A00005AA13462868696803C3297A67481970FE
:1048B000B2230192009339220923214607F0D0FC4C
:1048C000054608B172B6FEE708AA1346624C206896
:1048D000616803C321895D481980B4230192009364
:1048E00029460A23392207F0BBFC014608B172B6FB
:1048F000FEE704AB4FF040420193C72304920093BC
:1049000039220423514807F0ABFC014608B172B6C6
:10491000FEE70223152200934C48CC2307F08FFCBE
:10492000014608B172B6FEE7772315220093474887
:10493000D22307F084FC08B172B6FEE721AE3246FE
:1049400004F10A032A34154618685968083303C568
:10495000A3422A46F7D118681B7928602B71D3230C
:1049600001960093392225230021384807F078FC6E
:1049700008B172B6FEE70FAD2A46384B03F12006A8
:10498000144618685968083303C4B3422246F7D165
:104990001B8839222380D5230195009300212223EF
:1049A0002A4807F05DFC054608B172B6FEE70146ED
:1049B0000D220DF1760025F066FD4FF0183318AC8E
:1049C000C4E9003303F20113C4E90233244B182273
:1049D000236140F20233A3820123E375202323766F
:1049E0002123637622232277A3766277A277E27768
:1049F0002323D622E37629460092019439221348D4
:104A000007F02EFC08B172B6FEE72BAA1546154B2F
:104A100003F12806144618685968083303C4B342E2
:104A20002246F7D11B8800212380E02301950093C3
:104A300039222A23054807F013FC0146A0B172B6BB
:104A4000FEE700BF50DF06200068014014E20620A8
:104A5000000C0242B0B40208CCB40208FBB4020855
:104A6000060704051DB5020803AB0193B6234D4CA0
:104A700000932088A278ADF80C008DF80E20032357
:104A80003922494807F0ECFB014608B172B6FEE74F
:104A90000090BD231522444807F0D1FB08B172B63F
:104AA000FEE74CAA1646E31C2B34154618685968D5
:104AB000083303C5A3422A46F7D119889B78298079
:104AC000AB70C1230021009301962A233922364876
:104AD00007F0C6FB014608B172B6FEE701231522B6
:104AE00000933148BD2307F0AAFB08B172B6FEE778
:104AF00036AA15462D4B03F1280614461868596846
:104B0000083303C4B3422246F7D11B880021238017
:104B1000C1230195009339222A23234807F0A0FBE3
:104B2000014608B172B6FEE70223152200931E4823
:104B3000BD2307F084FB08B172B6FEE741AA154613
:104B40001B4B03F12806144618685968083303C440
:104B5000B3422246F7D11B8800212380C12301954F
:104B6000009339222A23104807F07AFB014608B146
:104B700072B6FEE70090BD2315220B4807F05FFBDD
:104B8000014608B172B6FEE70090112305220648DF
:104B900007F055FB08B172B6FEE7782004F0A2FDDD
:104BA00065B0F0BD47B5020814E2062075B50208ED
:104BB0009FB5020810B5CB078CB0044649D56B46AB
:104BC00002AA402106F076FD08B172B6FEE7029B0C
:104BD000B3F5807F0ED1204B1DF800201A54013010
:104BE0000828F9D100220121204606F0E7FD80B314
:104BF00072B6FEE740F20112934207D1174B1DF83F
:104C000000201A5401300828F9D1EBE7B3F5817F71
:104C100007D1134B1DF800201A5401300828F9D190
:104C2000E0E740F20312934207D10E4B1DF800203B
:104C30001A5401300828F9D1D4E740F20512934202
:104C4000D0D1094B1DF800201A5401300828F9D1A1
:104C5000C8E70CB010BD00BF58E00620A0E1062058
:104C600074E106200CE20620DCE00620102110484A
:104C700010B500230D24C0E9051106210D4AC0E935
:104C80000741C0E90023042101220524C0E90233C1
:104C90000274427483744262C0E90A14C0E90C12BF
:104CA000C0E90E2306F0D8FB08B172B6FEE710BDCE
:104CB00078E0062000A4004000B59FB060220021EB
:104CC00006A825F0E0FB18220021684625F0DBFB52
:104CD0004FF4403000F028FC08B172B6FEE74FF404
:104CE000803311210122CDE906131023CDE90D23D4
:104CF0004FF080430F930223CDE91620CDE9143203
:104D00005022CDE91C0006A8CDE91823CDE91A33BD
:104D100000F0D8FE08B172B6FEE71F220323CDE9EA
:104D20000200CDE9040004216846CDE9002300F02B
:104D300061FD08B172B6FEE71FB05DF804FB00B577
:104D4000B9B0D822002102A825F09DFB002206233D
:104D5000CDE90023042303227D21CDE90B23082381
:104D60000220CDE90D131823CDE90F034FF4A02342
:104D70006846139304F0A0FD08B172B6FEE739B09F
:104D80005DF804FB80B5A2B004F072FCFFF794FF5D
:104D9000FFF7D5FF00F044FC022000F00DFC0446B4
:104DA00008B172B6FEE70146142215A825F06BFB88
:104DB000A54B0321D3F88C20A44842F01002C3F87D
:104DC0008C20D3F88C20012502F010020092009A6A
:104DD000D3F88C20022742F00802C3F88C20D3F8C5
:104DE0008C204FF4005602F008020192019AD3F889
:104DF0008C2042F08002C3F88C20D3F88C2002F083
:104E000080020292029AD3F88C2042F48072C3F896
:104E10008C20D3F88C2002F480720392039AD3F88A
:104E20008C2042F40072C3F88C20D3F88C2002F45A
:104E300000720492049AD3F88C2042F00402C3F862
:104E40008C20D3F88C2002F004020592059AD3F846
:104E50008C2042F02002C3F88C20D3F88C302246FC
:104E600003F020030693069B03F01CFA0122202185
:104E7000774803F017FA22462021764803F012FA09
:104E800022460321724803F00DFA22464FF4A04156
:104E9000714803F007FA032315A96C48CDE91535CD
:104EA000CDE9174303F07EF8232315A96848CDE91F
:104EB00015351794189703F075F8202315A9654840
:104EC000CDE91535CDE9174403F06CF815A9634811
:104ED000CDE91564179403F065F84FF4807C604BBE
:104EE00015A95A48CDE915C3179503F05BF84FF49F
:104EF000A04315A95848CDE91535CDE9174703F06A
:104F000051F822460A21132002F0FEFE132002F07F
:104F10002FFF204607F09CFB08B172B6FEE707F0B2
:104F2000A7FB08B172B6FEE74E4B4F4A9880C3E923
:104F300005001A6018461D6207F04EFB054608B1D1
:104F400072B6FEE7014610220AA825F09CFA1C2240
:104F500029460EA8CDE90755099525F094FA342283
:104F6000294615A825F08FFA1223404C4048A56029
:104F7000C4E900038B232046C4E90335C4E9055581
:104F800003F07CFE08B172B6FEE74FF480530AA925
:104F900020460A9303F0D0FF08B172B6FEE7204620
:104FA00003F09CFE08B172B6FEE7CDE90700099058
:104FB00007A9204602F0AAFD08B172B6FEE76021FB
:104FC0006423CDE91000CDE90E13CDE91200149051
:104FD00004220EA9204603F015FF08B172B6FEE7C1
:104FE0004FF00073CDE91500CDE91700CDE91906A2
:104FF000CDE91B001D90CDE91E30CDE9200015A99B
:10500000204602F0F5FD08B172B6FEE7174800F041
:105010005FFA4FF440331748174A0125C0E90023CF
:105020000023C0E90253C0E9063303F085F908B153
:1050300072B6FEE71148124B036002F0A7FE044669
:1050400000B372B6FEE700BF000C02460010024239
:10505000000C0242002002420014024200080242F8
:105060000000211050E106200030024038E2062006
:1050700000340140F8DF062000B0024000E20620C4
:1050800000F00240FFF7A2FAFFF76CFB2146242252
:1050900015A825F0F8F90EA920468DF838508DF89E
:1050A00039500BF045F840B14B4825F067FD4B48AF
:1050B00025F064FD4A4825F0D5FD15A900200AF029
:1050C0009FFF00200AF0A8FF40B1464825F056FD9A
:1050D000424825F053FD424825F0C4FD20238DF8B9
:1050E00054300C238DF85530C02300208DF85630F5
:1050F000402315A98DF857008DF858008DF85930C8
:105100000AF0D4FB50B1384825F038FD374825F077
:1051100035FD334825F0A6FD72B6FEE70AF0C6FA63
:1051200050B1334825F02AFD304825F027FD2C48A2
:1051300025F098FD72B6FEE74FF000452D4C2E4B42
:105140002046C4E9003502F06BFE08B172B6FEE7F6
:10515000204602F053FE2046284C02F097FE284BD2
:105160002046C4E9003502F05BFE054608B172B680
:10517000FEE7204602F042FE204602F087FE0124B0
:10518000FFF774FD07F041FB07F03EFB02231D49CA
:105190001D48C1E9023440F20113C1E90055C1E9DB
:1051A000043306F049FA08B172B6FEE7164806F075
:1051B0006BFA024608B172B6FEE72146124806F0C5
:1051C000FDFA08B172B6FEE709F05CF9FFF798F94D
:1051D00009F06EF9FEE700BF45D4020868D4020862
:1051E00080D4020882D40208A5D40208C8D40208D8
:1051F000E0D40208D4E1062000140340A8E1062010
:105200000018034060E0062078E006200268034BA7
:105210009A4201D104F054BA704700BF0010004018
:1052200072B6FEE7FEE7FEE7FEE7FEE7FEE7704741
:105230004FF4807003F06CB8014803F082BB00BFEC
:10524000A8DE0620014803F0B9B800BFF8DF062049
:10525000014802F0B7BD00BF00E20620014802F09D
:10526000C4BD00BF00E20620014804F011B900BF30
:1052700050DF0620FFF7F8BF014806F01ABB00BF59
:1052800078E006200A4B0F21D3F894206FF001003C
:1052900042F00402C3F894200022D3F8943082B084
:1052A00003F004030193019B02B002F02DBD00BF87
:1052B000000C02460268094B82B09A420CD1084B9E
:1052C000D3F8882042F48052C3F88820D3F888307D
:1052D00003F480530193019B02B0704700300240F9
:1052E000000C02460368124A82B093420ED1114B61
:1052F000D3F8882042F08042C3F88820D3F8883061
:1053000003F080430093009B02B070470A4A934227
:10531000FAD1084BD3F8882042F40012C3F8882051
:10532000D3F8883003F400130193019BECE700BF2E
:1053300000140340000C02460018034007B50F4B51
:1053400002689A4217D10E4B0721D3F888207620A5
:1053500042F48022C3F88820D3F88830002203F476
:1053600080230193019B02F0CFFC762003B05DF80F
:1053700004EB02F0FDBC03B05DF804FB00B002409A
:10538000000C02460268094B82B09A420CD1084BCD
:10539000D3F8A42042F00062C3F8A420D3F8A430CC
:1053A00003F000630193019B02B07047006C014061
:1053B000000C02461FB5204B02689A4239D11F4C9F
:1053C0000022D4F88830072143F48013C4F88830D1
:1053D000D4F88830842003F480130193019BD4F81F
:1053E000883043F40013C4F88830D4F8883003F4CC
:1053F00000130293029B02F087FC842002F0B8FCA9
:1054000000220721852002F07FFC852002F0B0FCFD
:10541000D4F8A8300A4A43F00203C4F8A830D4F8FC
:10542000A83003F002030393039B536823F08053D7
:10543000536004B010BD00BF00F00240000C0246F3
:10544000000400467047704707B5134B02689A4244
:105450001FD1124B0721D3F8A420872042F080628D
:10546000C3F8A420D3F8A430002203F08063019392
:10547000019B02F049FC872002F07AFC0022072100
:10548000882002F041FC882003B05DF804EB02F0B4
:105490006FBC03B05DF804FB00680140000C0246DD
:1054A0000268094B82B09A420CD1084BD3F8A42071
:1054B00042F40052C3F8A420D3F8A43003F40053FC
:1054C0000193019B02B0704700340140000C02467A
:1054D00010B5044686B01422002101A824F0D3FFA1
:1054E00022680E4B9A4217D10D4B01A9D3F88C209C
:1054F0000C4842F48072C3F88C20D3F88C304022E0
:1055000003F480730093009B0223CDE901230493ED
:105510000323059302F046FD06B010BD00340140A0
:10552000000C0246002002421D4BDA6B02F44032AE
:10553000824208D1B2F5803F03D9DA6842F4802272
:10554000DA60002070474FF47A71DA68B0F5803F76
:1055500022F4E02288BF42F480221043D860114B2D
:105560001A683223B2FBF1F25343B3FBF1F3013378
:105570001A460B49C868000404D40AB903207047CE
:10558000013AF7E7002AF9D0054AD16B090403D4A0
:10559000002BF3D0013BF8E7002BD2D1EEE700BFA0
:1055A000000802460C000020024BD86B00F440308B
:1055B000704700BF000802464FF47A71124B1A6818
:1055C0003223B2FBF1F25343B3FBF1F30F4A013341
:1055D000916850B921F002019160D16B88070ED516
:1055E0000BB903207047013BF7E741F002019160DE
:1055F000D16B890703D4002BF3D0013BF8E7002BD4
:10560000EFD00020704700BF0C00002000080246C9
:10561000024A136943F000531361704700080246C1
:10562000024AD36A43F00103D3627047000802467E
:1056300037B52B4D0446D5F894305B0718D5FFF7E6
:10564000B3FF20F48033B3F5003F26D1B4F1805F7F
:105650002CBF00200120234A136823F00F030343CB
:105660001360136803F00F03181A18BF01201BE022
:10567000D5F8943043F00403C5F89430D5F894304D
:1056800003F004030193019BFFF78EFFD5F89430DC
:1056900023F00403C5F89430D3E7B4F1805F05D25A
:1056A000B0F5803F15D0012003B030BDB4F1005FEC
:1056B00006D980B9B4F1405F8CBF00200120CAE751
:1056C000B4F1805F09D1B0F5803F0CBF012002200A
:1056D000C1E70320BFE70020BDE70120BBE700BF13
:1056E000000C02460020024030B53E4BDA69996A50
:1056F00012F00C0205D00C2A42D101F0030101295D
:105700003ED19968090254BFD3F8F4309B683649FA
:1057100054BFC3F303331B0F51F82300002A5BD09F
:1057200000230C2A5BD12F49B7EE006A8C6A8B6A82
:105730008A6AC3F30323013307EE903A8D6BC2F3F9
:105740000013C5F3CC056B43F8EEE76A07EE903A19
:1057500004F00303022BFAEEE97A1DD0032B1BD0D1
:105760004B6BC3F3080307EE103AB8EEC77A77EE37
:10577000277A07EE100A77EE867AB8EE476A18E0C5
:10578000DB6903F00C03042B04D0082A25D0002386
:105790000020C6E7154BFBE74B6BC3F3080307EE8E
:1057A000103AB8EEC77A77EE277A77EE867A9FEDD1
:1057B000106A86EE267A0B4B67EE877A5B6BC3F333
:1057C0000663013307EE103AB8EEC77AC7EE876A70
:1057D000FCEEE67A17EE900A30BD0448FCE7184666
:1057E000FAE700BF000C0246A8D302080024F40028
:1057F0000024744B2DE9F3410E46044618B90120EC
:1058000002B0BDE8F0819F4A136803F00F038B429A
:1058100075D32368DA067ED423681B070DD59A4911
:1058200020690A6A120902F07002904281BF0B6A75
:1058300023F4E06343EA00130B6223685F070BD590
:10584000914AE068116A01F07001884281BF136AD1
:1058500023F070030343136223689D070BD58A4A24
:10586000A068116A01F00F01884281BF136A23F01A
:105870000F03034313622368D80759D42368990799
:1058800000F1D9807F4A136803F00F03B34200F29E
:10589000DF802368590700F1E78023681A070DD5D8
:1058A000794920690A6A120902F0700290423FBFEA
:1058B0000B6A23F4E06343EA00130B622368DB0600
:1058C0000BD5714A6069516A01F0700188423FBF8F
:1058D000536A23F0700303435362FFF705FF6A4BDB
:1058E0006A4A1B6A03F00F03D35CD840684B186008
:1058F000684B186802B0BDE8F041FEF71DBE1368A2
:1059000023F00F030B431360136803F00F038B4264
:105910007FF475AF7DE75C4A6069516A01F0700100
:10592000884281BF536A23F070030343536273E7D5
:105930006268554B032A4CD1D3F8942052073BD4CC
:105940000127D3F8942042F00402C3F89420D3F83E
:10595000943003F004030193019B03F0BDFE4E4D10
:105960008046EA68530329D4474B2FB1D3F89420DB
:1059700022F00402C3F894201B6813F0007F3FF468
:105980003EAF414D6268EB6941F2883823F0030372
:105990001343EB6103F0A0FE63680746032B25D198
:1059A000EB6903F00C030C2B3FF468AF03F094FE9B
:1059B000C01B4045F4D90AE00027CEE7EB68580445
:1059C000D2D403F089FEA0EB08000228F6D9032008
:1059D00016E7022A1B6802D113F4003FCFE712B981
:1059E00013F0040FCBE713F4806FC8E7022B0BD141
:1059F000EB6903F00C03082B3FF440AF03F06CFE9F
:105A0000C01B4045F4D9E2E77BB9EB6913F00C0FFA
:105A10003FF434AF03F060FEC01B4045F5D9D6E734
:105A200003F05AFEC01B4045D1D8EB6903F00C03CC
:105A3000042BF5D122E7144AA068116A01F00F0186
:105A400088423FBF136A23F00F030343136219E731
:105A5000136823F00F0333431360136803F00F033D
:105A6000B3427FF4CCAE14E7074AE068116A01F054
:105A7000700188423FBF136A23F07003034313622F
:105A80000BE700BF00200240000C024690D3020842
:105A90000C000020140000200008024608B5FFF7A3
:105AA00023FE054B054A1B6A03F00F03D35CD84065
:105AB000034B186008BD00BF000C024690D30208DB
:105AC0000C0000202DE9FF41044608B9012049E0FF
:105AD000A84BDE699F6A036806F00C06D80607F03B
